{
  "address": "0xdd56D649a0C1dd6fD78E4dbf0C2b84d3afAEc1a6",
  "abi": [
    {
      "inputs": [
        {
          "internalType": "uint256",
          "name": "goal",
          "type": "uint256"
        },
        {
          "internalType": "string",
          "name": "title",
          "type": "string"
        },
        {
          "internalType": "string",
          "name": "description",
          "type": "string"
        },
        {
          "internalType": "uint256",
          "name": "durationInDays",
          "type": "uint256"
        }
      ],
      "name": "createNewProject",
      "outputs": [],
      "stateMutability": "nonpayable",
      "type": "function"
    },
    {
      "inputs": [
        {
          "internalType": "uint256",
          "name": "",
          "type": "uint256"
        }
      ],
      "name": "projects",
      "outputs": [
        {
          "internalType": "contract Project",
          "name": "",
          "type": "address"
        }
      ],
      "stateMutability": "view",
      "type": "function"
    },
    {
      "inputs": [],
      "name": "returnAllProjects",
      "outputs": [
        {
          "internalType": "contract Project[]",
          "name": "",
          "type": "address[]"
        }
      ],
      "stateMutability": "view",
      "type": "function"
    }
  ],
  "transactionHash": "0xe6653be14238a071479f94d67da8495428cf07c84b0cb2a617f73f8643d366d4",
  "args": [],
  "solcInputHash": "fc41d1c3a9af8a0bfb20a0fd2f6e2d01",
  "bytecode": "0x608060405234801561001057600080fd5b506110d2806100206000396000f3fe60806040523480156200001157600080fd5b5060043610620000465760003560e01c8063107046bd146200004b57806336ba856f146200007f57806385b6e28e1462000098575b600080fd5b620000626200005c366004620002b7565b620000b1565b6040516001600160a01b0390911681526020015b60405180910390f35b6200009662000090366004620002d0565b620000dc565b005b620000a262000193565b60405162000076919062000397565b60008181548110620000c257600080fd5b6000918252602090912001546001600160a01b0316905081565b6000620000f9620000f18362015180620001f7565b42906200020c565b90506000858585338560405162000110906200021a565b62000120959493929190620003e6565b604051809103906000f0801580156200013d573d6000803e3d6000fd5b50600080546001810182559080527f290decd9548b62a8d60345a988386fc84ba6bc95484008f6362f93160ef3e5630180546001600160a01b0319166001600160a01b0392909216919091179055505050505050565b60606000805480602002602001604051908101604052809291908181526020018280548015620001ed57602002820191906000526020600020905b81546001600160a01b03168152600190910190602001808311620001ce575b5050505050905090565b60006200020582846200044e565b9392505050565b600062000205828462000433565b610c00806200049d83390190565b600082601f83011262000239578081fd5b813567ffffffffffffffff8082111562000257576200025762000486565b604051601f8301601f19908116603f0116810190828211818310171562000282576200028262000486565b816040528381528660208588010111156200029b578485fd5b8360208701602083013792830160200193909352509392505050565b600060208284031215620002c9578081fd5b5035919050565b60008060008060808587031215620002e6578283fd5b84359350602085013567ffffffffffffffff8082111562000305578485fd5b620003138883890162000228565b9450604087013591508082111562000329578384fd5b50620003388782880162000228565b949793965093946060013593505050565b60008151808452815b81811015620003705760208185018101518683018201520162000352565b81811115620003825782602083870101525b50601f01601f19169290920160200192915050565b6020808252825182820181905260009190848201906040850190845b81811015620003da5783516001600160a01b031683529284019291840191600101620003b3565b50909695505050505050565b85815260a0602082015260006200040160a083018762000349565b828103604084015262000415818762000349565b6001600160a01b039590951660608401525050608001529392505050565b6000821982111562000449576200044962000470565b500190565b60008160001904831182151516156200046b576200046b62000470565b500290565b634e487b7160e01b600052601160045260246000fd5b634e487b7160e01b600052604160045260246000fdfe60806040526005805460ff191690553480156200001b57600080fd5b5060405162000c0038038062000c008339810160408190526200003e9162000313565b620000493362000095565b6001859055835162000063906002906020870190620001ba565b50825162000079906004906020860190620001ba565b5060038190556200008a82620000e5565b505050505062000404565b600080546001600160a01b038381166001600160a01b0319831681178455604051919092169283917f8be0079c531659141344cd1fd0a4f28419497f9722a3daafe3b4186f6b6457e09190a35050565b6000546001600160a01b03163314620001455760405162461bcd60e51b815260206004820181905260248201527f4f776e61626c653a2063616c6c6572206973206e6f7420746865206f776e657260448201526064015b60405180910390fd5b6001600160a01b038116620001ac5760405162461bcd60e51b815260206004820152602660248201527f4f776e61626c653a206e6577206f776e657220697320746865207a65726f206160448201526564647265737360d01b60648201526084016200013c565b620001b78162000095565b50565b828054620001c890620003b1565b90600052602060002090601f016020900481019282620001ec576000855562000237565b82601f106200020757805160ff191683800117855562000237565b8280016001018555821562000237579182015b82811115620002375782518255916020019190600101906200021a565b506200024592915062000249565b5090565b5b808211156200024557600081556001016200024a565b600082601f83011262000271578081fd5b81516001600160401b03808211156200028e576200028e620003ee565b604051601f8301601f19908116603f01168101908282118183101715620002b957620002b9620003ee565b81604052838152602092508683858801011115620002d5578485fd5b8491505b83821015620002f85785820183015181830184015290820190620002d9565b838211156200030957848385830101525b9695505050505050565b600080600080600060a086880312156200032b578081fd5b855160208701519095506001600160401b03808211156200034a578283fd5b6200035889838a0162000260565b955060408801519150808211156200036e578283fd5b506200037d8882890162000260565b606088015190945090506001600160a01b03811681146200039c578182fd5b80925050608086015190509295509295909350565b600181811c90821680620003c657607f821691505b60208210811415620003e857634e487b7160e01b600052602260045260246000fd5b50919050565b634e487b7160e01b600052604160045260246000fd5b6107ec80620004146000396000f3fe6080604052600436106100dd5760003560e01c80637284e4161161007f578063b2fa1c9e11610059578063b2fa1c9e1461020a578063c19d93fb1461021f578063d7bb99ba14610246578063f2fde38b1461024e57600080fd5b80637284e416146101b85780638da5cb5b146101cd578063ab2c84e5146101f557600080fd5b80634a79d50c116100bb5780634a79d50c14610157578063590e1ae314610179578063715018a614610190578063722713f7146101a557600080fd5b806329dcb0cf146100e257806331306eb41461010b5780634019388314610141575b600080fd5b3480156100ee57600080fd5b506100f860035481565b6040519081526020015b60405180910390f35b34801561011757600080fd5b506100f86101263660046106b5565b6001600160a01b031660009081526006602052604090205490565b34801561014d57600080fd5b506100f860015481565b34801561016357600080fd5b5061016c61026e565b6040516101029190610704565b34801561018557600080fd5b5061018e6102fc565b005b34801561019c57600080fd5b5061018e610393565b3480156101b157600080fd5b50476100f8565b3480156101c457600080fd5b5061016c6103fe565b3480156101d957600080fd5b506000546040516001600160a01b039091168152602001610102565b34801561020157600080fd5b5061018e61040b565b34801561021657600080fd5b5061018e610455565b34801561022b57600080fd5b506005546102399060ff1681565b60405161010291906106dc565b61018e610493565b34801561025a57600080fd5b5061018e6102693660046106b5565b61050f565b6002805461027b9061077b565b80601f01602080910402602001604051908101604052809291908181526020018280546102a79061077b565b80156102f45780601f106102c9576101008083540402835291602001916102f4565b820191906000526020600020905b8154815290600101906020018083116102d757829003601f168201915b505050505081565b60018060055460ff16600281111561032457634e487b7160e01b600052602160045260246000fd5b1461032e57600080fd5b3360009081526006602052604090205461034757600080fd5b33600081815260066020526040808220805490839055905190929183156108fc02918491818181858888f1935050505015610380575050565b3360009081526006602052604090205550565b6000546001600160a01b031633146103f25760405162461bcd60e51b815260206004820181905260248201527f4f776e61626c653a2063616c6c6572206973206e6f7420746865206f776e657260448201526064015b60405180910390fd5b6103fc60006105d3565b565b6004805461027b9061077b565b60008060055460ff16600281111561043357634e487b7160e01b600052602160045260246000fd5b1461043d57600080fd5b6005805460ff191660011790556104526102fc565b50565b60015447908110610479576005805460ff19166002179055610475610623565b5050565b60035442111561045257506005805460ff19166001179055565b60008060055460ff1660028111156104bb57634e487b7160e01b600052602160045260246000fd5b146104c557600080fd5b6000546001600160a01b03163314156104dd57600080fd5b336000908152600660205260409020546104f790346106a2565b33600090815260066020526040902055610452610455565b6000546001600160a01b031633146105695760405162461bcd60e51b815260206004820181905260248201527f4f776e61626c653a2063616c6c6572206973206e6f7420746865206f776e657260448201526064016103e9565b6001600160a01b0381166105ce5760405162461bcd60e51b815260206004820152602660248201527f4f776e61626c653a206e6577206f776e657220697320746865207a65726f206160448201526564647265737360d01b60648201526084016103e9565b610452815b600080546001600160a01b038381166001600160a01b0319831681178455604051919092169283917f8be0079c531659141344cd1fd0a4f28419497f9722a3daafe3b4186f6b6457e09190a35050565b600060028060055460ff16600281111561064d57634e487b7160e01b600052602160045260246000fd5b1461065757600080fd5b600080544760018190556040516001600160a01b0390921692909183916108fc841502918491818181858888f1935050505015610698576001935050505090565b6000935050505090565b60006106ae8284610757565b9392505050565b6000602082840312156106c6578081fd5b81356001600160a01b03811681146106ae578182fd5b60208101600383106106fe57634e487b7160e01b600052602160045260246000fd5b91905290565b6000602080835283518082850152825b8181101561073057858101830151858201604001528201610714565b818111156107415783604083870101525b50601f01601f1916929092016040019392505050565b6000821982111561077657634e487b7160e01b81526011600452602481fd5b500190565b600181811c9082168061078f57607f821691505b602082108114156107b057634e487b7160e01b600052602260045260246000fd5b5091905056fea264697066735822122099852efbae9c40120940e35f2d7c0cda340b492660b2ee2522de337498630cf864736f6c63430008040033a26469706673582212209eb426eda7642d0a6491b718429129107268f00847989f2e3f2c6cbc6733688164736f6c63430008040033",
  "devdoc": {
    "kind": "dev",
    "methods": {},
    "version": 1
  },
  "userdoc": {
    "kind": "user",
    "methods": {},
    "version": 1
  },
  "storageLayout": {
    "storage": [
      {
        "astId": 447,
        "contract": "contracts/CrowdFunding.sol:CrowdFunding",
        "label": "projects",
        "offset": 0,
        "slot": "0",
        "type": "t_array(t_contract(Project)777)dyn_storage"
      }
    ],
    "types": {
      "t_array(t_contract(Project)777)dyn_storage": {
        "base": "t_contract(Project)777",
        "encoding": "dynamic_array",
        "label": "contract Project[]",
        "numberOfBytes": "32"
      },
      "t_contract(Project)777": {
        "encoding": "inplace",
        "label": "contract Project",
        "numberOfBytes": "20"
      }
    }
  }
}